:1000000045C0000058C0000056C0000054C00000A9
:1000100052C0000050C000004EC000004CC00000A4
:100020004AC0000048C0000046C0000044C00000B4
:1000300042C0000040C000003EC000003CC00000C4
:100040003AC0000038C0000036C0000034C00000D4
:1000500032C0000030C000002EC000002CC00000E4
:100060002AC0000028C0000026C0000024C00000F4
:1000700022C0000020C000001EC000001CC0000004
:100080001AC0000018C0000016C0000011241FBED6
:10009000CFEFD0E1DEBFCDBF11E0A0E0B1E0EAE5F7
:1000A000F1E000E00BBF02C007900D92AA31B1074A
:1000B000D9F71ED050C0A4CF21E030E002C0220FFB
:1000C000331F8A95E2F72BBB2FEF89E698E1215089
:1000D00080409040E1F700C000001BBA2FEF89E696
:1000E00098E1215080409040E1F700C00000089561
:1000F0000F931F93CF93DF93CDB7DEB769970FB6FA
:10010000F894DEBF0FBECDBF89E1E0E0F1E0DE0193
:10011000119601900D928A95E1F78FEF8ABB00E06E
:1001200010E0E1E0F0E0EC0FFD1FE00FF11F808137
:10013000C3DF0F5F1F4F0931110599F780E090E091
:1001400069960FB6F894DEBF0FBECDBFDF91CF9199
:0A0150001F910F910895F894FFCF5E
:10015A00050403040505050404040505050504034F
:0A016A000405050504040504030064
:00000001FF
